:1000000012C02CC02BC02AC029C028C027C026C0BF
:1000100025C024C023C022C021C020C01FC01EC0D4
:100020001DC01CC01BC011241FBECFE5D4E0DEBF25
:10003000CDBF10E0A0E6B0E0EEEFF0E002C005902A
:100040000D92AA38B107D9F720E0AAE8B0E001C0C4
:100050001D92AD38B207E1F702D04FC0D1CF8FEF7C
:1000600081BB87BB20E830E010928C0080918C002F
:100070008634C0F510928B0080918B00883040F55B
:1000800080916000809588BB80918B00E0918A0010
:1000900098E0E99FF0011124E80FF11DEE59FF4FA0
:1000A000808182BB89EF90E00197F1F700C00000EA
:1000B0008091600090916100959587959093610083
:1000C0008093600080918B008F5F80938B00D4CFF2
:1000D000309361002093600080918C008F5F80934B
:1000E0008C00C4CF80918A008F5F80938A00853016
:0E00F00009F0BACF10928A00B7CFF894FFCF74
:1000FE008000C3E3F3DBCFC7C3C1003F7FCCCC7F0F
:10010E003F0000FFFF3333333F1EFFFF03030303A4
:0A011E000303FFFFDBDBDBDBDBDBB1
:00000001FF
