:1000000019C020C01FC01EC01DC01CC01BC01AC00C
:1000100019C018C017C016C015C014C013C012C034
:1000200011C010C00FC00EC00DC00CC00BC00AC064
:1000300009C008C011241FBECFEFD2E0DEBFCDBF84
:1000400002D01DC0DDCF1092C50086E08093C400B1
:1000500098E19093C1008093C20090E18FE614B8BC
:1000600095B91C99FCCF2FE936E841E0215030408A
:100070004040E1F700C000008093C600F0CFF89444
:02008000FFCFB0
:00000001FF
